:020000040800F2
:1000000058070020CD010008D1010008D3010008E5
:10001000D5010008D7010008D90100080000000040
:10002000000000000000000000000000DB010008EC
:10003000DD01000800000000DF010008E101000808
:10004000E3010008E3010008E3010008E301000800
:10005000E3010008E3010008E3010008E3010008F0
:10006000E3010008E3010008E3010008E3010008E0
:10007000E3010008E3010008E3010008E3010008D0
:10008000E3010008E3010008E3010008E3010008C0
:10009000E3010008E3010008E3010008E3010008B0
:1000A000E3010008E3010008E3010008E3010008A0
:1000B000FD080008E3010008E3010008E30100086F
:1000C000E3010008E3010008E3010008E301000880
:1000D000E3010008E3010008E30100084D0B0008FC
:1000E000E3010008E3010008E3010008E301000860
:1000F000E3010008E3010008E3010008E301000850
:10010000E3010008E3010008E3010008E30100083F
:10011000E3010008E3010008E3010008E30100082F
:10012000E3010008E3010008E3010008E30100081F
:1001300000F002F800F03AF80AA090E8000C8244BF
:100140008344AAF10107DA4501D100F02FF8AFF29C
:10015000090EBAE80F0013F0010F18BFFB1A43F0A5
:10016000010318471012000030120000103A24BF9B
:1001700078C878C1FAD8520724BF30C830C144BF0C
:1001800004680C607047000000230024002500264E
:10019000103A28BF78C1FBD8520728BF30C148BFEA
:1001A0000B6070471FB51FBD10B510BD00F034F8CF
:1001B0001146FFF7F7FF00F079FD00F052F803B4A5
:1001C000FFF7F2FF03BC00F017FD000008480047EE
:1001D000FEE7FEE7FEE7FEE7FEE7FEE7FEE7FEE7F7
:1001E000FEE7FEE703480449044A054B7047000058
:1001F0003101000858010020580700205803002052
:1002000058030020704770477047704770470000E0
:1002100000487047F40000207546FFF7F9FFAE462E
:1002200005006946534620F00700854618B020B502
:10023000FFF7D8FFBDE820404FF000064FF0000761
:100240004FF000084FF0000B21F00701AC46ACE87E
:10025000C009ACE8C009ACE8C009ACE8C0098D46EB
:1002600070470446AFF300802046FFF7A8FF000068
:1002700002480068C8300149086070470800002043
:1002800000B51248006810B900F026F91CE00F48CC
:10029000001F006810B900F00BF915E00C48006869
:1002A00010B900F095FC0FE00948006860B100202B
:1002B00008490880091F08804FF4FA600549091DA4
:1002C00008800020091D088000BD00001481214223
:1002D0002C0122423808004007480088074908805E
:1002E0000020091F08800549091D08800248008870
:1002F000091D0880704700000800002038080040F1
:1003000002480068C83801490860704708000020AA
:1003100010B50B4800880B4908800020091F088091
:10032000074800880749091D08800020091D08802A
:100330004FF4AF7000F084FC00F0CAFA10BD00006A
:1003400008000020380800400948806940F0040097
:10035000074988610748006807490840054908605F
:1003600008460068054908430249086070470000D4
:100370000010024000080140FF0F00FF00808800CD
:1003800070B500261348008800F40040C0B1114841
:100390000088C0F30D0500240DE00F48005D0F49F3
:1003A000088000BF0D48001F008800F040000028B2
:1003B000F8D0601C84B2AC42EFDB00200549088015
:1003C000054800F069F90648006808B1FFF758FFD2
:1003D00070BD0000140000202C00002004480040E4
:1003E000000000201448806940F010001249886124
:1003F0001248006820F07040104908600846006804
:1004000040F0405008600846C06840F08000C86076
:1004100000200B4908600948406820F00F00074998
:1004200048600846406840F00300486000200549E5
:10043000C1F8A00170470000001002400010014008
:100440009C012242000022421648806940F00400CC
:10045000144988610846806940F0080088611248A4
:10046000006820F07F60104908600846006840F08E
:10047000086008600D48006820F00F000B49086014
:100480000846006840F008000860081D006820F475
:100490007060091D08600846006840F4006008604C
:1004A000704700000010024000080140000C0140AD
:1004B00000200749088007480088091F088000209D
:1004C0000349091D088003480088091D08807047FA
:1004D00038080040080000200020064908804FF43A
:1004E000FA60091F08800349083108800020091FAD
:1004F00008807047380800400848806940F01000C4
:10050000064988610648406820F470400449486004
:100510000846406840F400404860704700100240C0
:10052000001001400848806940F0100006498861C9
:100530000648406820F470600449486008464068F6
:1005400040F4006048607047001002400010014015
:1005500000B5002015490861C860142048610020DA
:100560008861C8610846006840F0010008600846DC
:1005700040680F4908400D494860084600680D4929
:1005800008400A4908600846006820F48020086096
:100590000846406820F4FE00486000208860002182
:1005A0004FF0006000F058F800BD0000001002405D
:1005B0000000FFF8FFFFF6FE2DE9F04107468846F0
:1005C00014461D46284600F033F8C5F1040007FA2A
:1005D00000F60F20284100EA0800064306F00F0647
:1005E000E21704EBD2625211920002F1E022D2F83B
:1005F00000212146E31704EBD3635B11A4EB431CFA
:10060000012303FA0CF31A432046E31704EBD363E8
:100610005B119B0003F1E023C3F800210348005D58
:1006200040EA061001490855BDE8F08100E400E009
:100630000146072323EA01021202054B18684FF610
:10064000FF031840034B18431043014B18607047D9
:100650000CED00E00000FA05024A0A400243024B9A
:100660001A60704780FFFF1F08ED00E008488069AE
:1006700040F00800064988610648006820F0F01044
:10068000044908600846006840F080100860704720
:1006900000100240000C014010B5044620783138AB
:1006A000132832D2DFE800F00A0B0E1114171A1DBE
:1006B00020272B31313131313131230025E000F059
:1006C00087FA22E000F004F91FE0FFF7F1FE1CE0DA
:1006D000FFF702FE19E000F067F816E0FFF7C8FD2B
:1006E00013E0FFF70DFE10E0FFF712FE0DE0012012
:1006F0000749086009E001200649086005E000207C
:100700000449086000F0E4F800BF00BF10BD00001D
:100710009C0122420000002010B5072140F2CF705A
:1007200000F048F910BD00001C4AD26942F00202F4
:100730001A4BDA611A46926942F004029A61184A29
:10074000126822F07042164B1A601A46126842F084
:1007500030421A60134A1080121F1180114A143A55
:10076000128842F4C0420F4B143B1A801A4612887A
:1007700042F400621A800B4A0C3A128842F01002CE
:10078000084B0C3B1A80DA13064B2C3B1A801A4696
:10079000128842F001021A807047000000100240E7
:1007A000000801402C0400400748008807490880E1
:1007B0000020091F0880044800880449091D08809A
:1007C0000020091D088070470800002038080040FC
:1007D0000848806940F010000649886106480068B2
:1007E00020F47020044908600846006840F40020A6
:1007F0000860704700100240040C014008488069FE
:1008000040F00800064988610648006820F470201E
:10081000044908600846006840F4002008607047FA
:1008200000100240000C014010B541F61F41C720E6
:10083000FFF77AFF10200149088010BD38040040FE
:1008400030B504460025FFF783FE1F48006840F4DA
:1008500080301D49086000BF1B480068400C00281C
:10086000FAD04FF4806018494860A01EC4B2084610
:10087000406840EA844048600846406840F4803060
:1008800048601248006840F03200104908600E4885
:10089000006840F080700C49086000BF0A4800689A
:1008A000400E0028FAD00848406840F0020006498F
:1008B000486005E004484068C0F3870505F003057B
:1008C000022DF7D130BD0000001002400020024090
:1008D000002007490880091F088005490831088061
:1008E000091F088003490860034908607047000039
:1008F000380800409C012242040000204FF0804153
:10090000088A2A49097801F08001002948D100F0BD
:100910000101D1B12549097801F04001A9B123496C
:10092000097801F03F013F290AD12049097841F0B7
:1009300080011E4A11704FF6FF711D4A118004E0BC
:100940001A490978491C194A117000F0020139B39B
:100950001649097801F0400199B11449097841F02C
:100960008001124A11704FF08041898E104A118027
:100970004FF08041098C21F002014FF08042118438
:100980000EE000210A4A11804021084A117000211E
:100990004FF0804291841146098C41F0020111848C
:1009A00000214FF080421182704700002800002093
:1009B0002A000020464AD26942F00402444BDA6120
:1009C0001A46926942F008029A61424A126822F07D
:1009D0007F42404B1A601A46126842F03B421A604E
:1009E0001A1D126822F0FF021B1D1A601A461268B7
:1009F00042F0BB021A60384A1080121F1180364A3A
:100A0000143A128842F07002334B143B1A801A4693
:100A1000128842F008021A802F4A0C3A128842F0DB
:100A200001022D4B0C3B1A802B4A143A128842F4D7
:100A3000E042294B143B1A801A46128842F40062A5
:100A40001A80254A0C3A128842F01002224B0C3BC5
:100A50001A801A1F128842F070021B1F1A801A4651
:100A6000128842F008021A801A1D128842F480721D
:100A70001B1D1A801A1F128842F4E0421B1F1A80A5
:100A80001A46128842F400621A801A1D128842F433
:100A900080521B1D1A80104A1832128842F40042FC
:100AA0000D4B18331A8080220B4B2C3B1A801A46B0
:100AB000128842F001021A800022074B08331A8084
:100AC0001B1D1A801B1D1A801B1D1A8070470000F9
:100AD00000100240000C01402C08004030B500BF5F
:100AE000154B1B68154CD4F834412344134CD4F8EF
:100AF0003C412344124CD4F8184119190E4B0C33C5
:100B00001B68104C2468022505FB04330B4CD4F8F9
:100B100034411B1B094CD4F8304105FB143292FBC5
:100B2000F1F0444204EBC40303EBD374641004F10A
:100B30001000054C208030BD3081214200802142D0
:100B40000000224218012242380400401D49098851
:100B500001F0200111B31B49091D0988C8B21A49C7
:100B6000098801F40041C9B91749098801F4804195
:100B700061B10A2803D00021134A118020E01249F4
:100B8000098841F40041104A118019E00D2806D16E
:100B90000D49098841F480410B4A118010E00A494F
:100BA0000988C1F30D01094A505407490988491CB5
:100BB000054A118011460988C72901DD00211180ED
:100BC0007047000000480040140000202C00002066
:100BD00000200749088007480088091F0880002076
:100BE00003490831088003480088091F08807047BE
:100BF0003808004008000020014600BF7047000090
:100C00004FF0E021096921F004014FF0E022116169
:100C1000C21700EB5272C2F3C702074B1A70194693
:100C2000097801EB4102C2EBC1114FF6FF7202EAF3
:100C3000C101024A118070470C0000200E00002004
:100C400001460D4A12884A434FF0E0235A610022C0
:100C50009A6101221A6100BF4FF0E022106900F092
:100C600001021AB100F48032002AF5D000224FF0C0
:100C7000E0231A619A6170470E00002010B5FFF75B
:100C8000B1FBFFF7F3FCFFF74DFCFFF7B7FDFFF7F4
:100C900033FCFFF79DFDFFF73FFDFFF7C5FDFFF7B5
:100CA00053FBFFF7D1FBFFF713FE10BD0920FFF741
:100CB000C7FD4FF49641482000F046F84820FFF762
:100CC0009FFFFFF7DBFF37E01C48006870B91B4847
:100CD000001D006850B919480C30006830B9184838
:100CE000006818B915480830006800B3012014499D
:100CF0008431086001E0FFF7F1FE10480068002829
:100D0000F9D10E48001D00680028F4D10B480C30C2
:100D100000680028EFD10A4800680028EBD1074896
:100D2000083000680028E6D10549843108601020A9
:100D300004490880FFF724FBC6E700003081214208
:100D400018012242380400402DE9F05F05460E46A6
:100D5000300100F0AFF98146304905FB01F000F0A9
:100D6000A9F98246494600F0C3F80746384600F024
:100D700081F984B2204600F09DF98346394600F09F
:100D800079FA82464FF0834100F0A8F9814600F0DD
:100D900071F980464FF6FF7000EA041404EB080076
:100DA00084B21F48806940F008001D4988610846E8
:100DB000C06940F48020C8611A48006820F47F4070
:100DC000184908600846006840F40B400860144861
:100DD000006940F48020124908610846006920F447
:100DE0008020086110480480001D008842F20C0138
:100DF00008430D49091D08800846008840F48070AA
:100E000008800846008840F020000880022327223E
:100E100003210846FFF7D0FBBDE8F09F40420F00DA
:100E200000100240040C01400848004090EA010F05
:100E300048BF81F0004100F12E82421A3CBF801A67
:100E400089184FEAD0524FF07F4C1CEA410FA2EBB9
:100E5000D15318BF9CEA026F00F03B804FF0004C6A
:100E60004CEA00204CEA012121FA03FC10EB0C0CA7
:100E70001ED202F1FF325FEA1C2040EBC25038BFA5
:100E800070471CF07F0F4FEA400C18BFBCF17F4F3A
:100E900038BF7047C3F12003994008BF20F001001C
:100EA000BCF17F4F38BF7047A0F1C04000F0DDB902
:100EB0004FEA3C00000A40EBC25028BF1CF0FF0F75
:100EC0004FEA400CE6D018BFBCF17F4F38BF7047E7
:100ED000EAE79CEA026F05D010EA5C0F08BF00F059
:100EE0000040704710B500F07AF900BF64FBBE3EC9
:100EF0004FF47F0C1CEAD0121EBF1CEAD11392EAF9
:100F00000C0F93EA0C0F00F0858090EA010F48BFA8
:100F100042F4807240F4000C41F400002CF07F4158
:100F200020F07F4000B58142A2EB03020FF2081CC3
:100F3000ACEB504EC0F100009EF800E04FEA4E0EC0
:100F400000FB0EFC38BF49004FEA2C1C02F5FA02E8
:100F50000CFB0EF34FEACE1E4FEA112C4FEAC121D3
:100F60000EEB635E42EB22420EFB0CFC4FEA1C537D
:100F700000FB03114FEA112C4FEA01310EFB0CFC70
:100F80004FEADC4C00FB0C11C14228BF09184CEBA6
:100F900003335DF804EB10EB410143EBC250B2F5B3
:100FA0007C0F38BF704729D512F0F00F1CBF00F13D
:100FB000C04000F0004070470081828384858687AE
:100FC00088898B8C8D8E8F919293959697999A9C08
:100FD0009D9FA0A2A3A5A7A8AAACAEB0B2B3B5B777
:100FE000B9BCBEC0C2C5C7C9CCCED1D4D7D9DCDF4D
:100FF000E2E6E9ECF0F3F7FAFE0000004FEA400CFD
:101000000CF1807CBCF17E4F28BF7047B0F1C0402E
:1010100000F02BB990EA010F0CEAD11348BF42F45B
:101020008072624538BF634507D213F47F0F16D034
:1010300080EA010000F00040704710B500F0CFF8E2
:10104000097EFC3E00F005B880EA010000F0004097
:10105000704780EA010000F0004000F006B912F489
:101060007F0F04BF0248704780EA010000F0FDB81E
:101070000000C07FC10DD1F19E0206DB4FEA0023C4
:1010800043F0004323FA02F07047004207D54FEACD
:101090004001B1F1FE4F02D24FF00000704710B591
:1010A00000F09DF849922480002070476FEA2000EC
:1010B00070470000B0FA80F310FA03F2C3F19D0309
:1010C0000AD0D90501EB1220530638BF704700F152
:1010D000010008BF20F00100704700004FF47F0CB2
:1010E0001CEAD0121EBF1CEAD11392EA0C0F93EA3D
:1010F0000C0F00F0478090EA010F48BF42F4807265
:101100004FF0004C4CEA00204CEA012102EB0302B4
:10111000A0FB0113A2F50002002918BF43F0010350
:101120005B0028BF4FEA330342EB22425FEA132CF5
:101130004CEBC2502EBFBCEB436FB2F57C0F704737
:101140004FEA036CBCF1004F08BF20F00100B2F57C
:101150007C0F38BF70470BD582F0FF0212F5803F3D
:10116000C8BF704700F1C040D8BF00F000407047D2
:1011700000F5000C5FEA4C0C48BF7047B0F1C0406E
:1011800000F073B890EA010F0CEAD11348BF42F4A3
:101190008072624538BF634504D280EA010000F0E6
:1011A0000040704710B500F01AF800BF8900013EFA
:1011B00000F007B800F009B85FEA410C5FEA1C6C68
:1011C00008D080EA010000F050B85FEA400C5FEA06
:1011D0001C6CF6D14FF00040A0F5800070470EF176
:1011E000020E2EF0030E5EF8044B244204D44FEAA4
:1011F0004102B2F17F4F11D84FEA4003B3F17F4F64
:101200000CD80ED14FEAD07CB2F17F4F0CEB4C0CD6
:101210000CF1020C08BF4CEBD17C04E04FF0080C41
:1012200001E04FEAD17C0CEB4C0324FA03F404F008
:101230000704B4F1040C06D20EEB840CBDE8104098
:101240004CF0010C6047DFE80CF0070802024FF099
:101250000040A0F5800010BD0846420018BFD2F142
:10126000807288BF00F0004010BDFF2141EAD050DD
:10127000C005704780F0004090EA010F7FF5DDADBA
:1012800081F0004100F007B890EA010F48BF81F0FB
:1012900000413FF5D2AD421A04D882F00042A0EBE3
:1012A000020011444FEAD0524FF07F4C1CEA410F2C
:1012B000A2EBD15318BF9CEA026F4AD04FF0004C0A
:1012C0004CEA00204CEA012121FA03FCB0EB0C0CA3
:1012D0000FD412F0FE0F36D05FEA4C001DD500127D
:1012E00040EBC25038BF70471CF03F0F18BF70472B
:1012F0000BE0A2F101025FEA1C2040EBC25038BFB4
:1013000070471CF07F0F18BF7047C3F1200399404E
:1013100014BF401E20F00100704780084FEA1223DE
:1013200008BF7047B0FA80FCA2EB0C02CCF1280C8D
:1013300060FA0CF093EA122F04BF00EBC250704722
:101340004FEAC3707047130A5FEADC1008BF7047AA
:10135000F6E79CEA026F04D010EA5C0F08BF002099
:10136000704710B5FFF73BFF40DFF63E81F00040CD
:101370007047000094130008000000202C000000BB
:101380006C010008C01300082C0000202C0700008E
:10139000880100080000000000000000B004000008
:1013A000000000000000000000000000000000003D
:1013B0000055AA0101010101010101120000000014
:0400000508000131BD
:00000001FF
